:100000000C94A80F0C94D90F0C94D90F0C94D90F01
:100010000C94D90F0C94D90F0C94D90F0C94D90FC0
:100020000C94D90F0C94D90F0C94D90F0C94D90FB0
:100030000C94D90F0C940B320C94D90F0C94D90F4B
:100040000C94D90F0C94F7800C94D90F0C94D90F01
:100050000C94D90F0C94D90F0C941C6A0C948598AD
:100060000C94D90F0C94C2410C94D90F0C94D90F55
:100070000C94D90F0C94D90F0C94D90F0C94D90F60
:100080000C94D90F0C94D90F0C94D90F0C94D90F50
:100090000C94D90F0C94D90F0C94D90F0C94D90F40
:1000A0000C94D90F0C94D90F0C94D90F0C94D90F30
:1000B0000C94D90F0C94D90F0C94D90F0C94D90F20
:1000C0000C94D90F0C94D90F0C94D90F0C94D90F10
:1000D0000C94D90F0C94D90F0C94D90F0C94D90F00
:1000E0000C94D90F786A876AA36AB26ACC6ADB6A11
:1000F000F56AF96AFB6AFF6A076B02970597F4963F
:10010000F896FE963C9709970D97139717971B97AC
:100110002197259729973C972F9733973797A19742
:10012000A697AB97B597BF973898C997D197D997A6
:10013000E397ED97F7970698109838981A982498AF
:100140002E98084AD73B3BCE016E84BCBFFDC12F21
:100150003D6C74319ABD56833DDA3D00C77F11BEB8
:10016000D9E4BB4C3E916BAAAABE000000803F05BB
:10017000A84CCDB2D44EB93836A9020C50B99186EC
:1001800088083CA6AAAA2ABE000000803F004E4173
:100190004E494E495459494E46CDCCCC3D0AD72301
:1001A0003C17B7D13877CC2B329595E6241FB14F49
:1001B0000A000020410000C84200401C4620BCBE8E
:1001C0004CCA1B0E5AAEC59D742F0053442070724A
:1001D000696E74696E67206279746520004E6F7471
:1001E000205344207072696E74696E67002E00445B
:1001F000656C6574696F6E206661696C65642C203E
:1002000046696C653A200046696C652064656C65DA
:100210007465643A002E006F70656E206661696CCB
:1002200065642C2046696C653A20005049442041A1
:1002300075746F74756E652066696E697368656440
:10024000212050757420746865206C617374204B94
:10025000702C204B6920616E64204B6420636F6EAC
:100260007374616E74732066726F6D2061626F7655
:100270006520696E746F20436F6E66696775726181
:1002800074696F6E2E6800504944204175746F7414
:10029000756E65206661696C6564212074696D65A1
:1002A0006F75740020403A006F6B20543A006F6BFA
:1002B00020423A00504944204175746F74756E6550
:1002C000206661696C6564212054656D706572619A
:1002D0007475726520746F6F206869676800204BC1
:1002E000643A2000204B693A2000204B703A2000ED
:1002F00020436C617373696320504944200020548B
:10030000753A2000204B753A2000206D61783A2024
:1003100000206D696E3A200020643A200020626956
:1003200061733A20002200556E6B6E6F776E20630A
:100330006F6D6D616E643A202200434D4548035451
:1003400062204D41544550034104006F6666736559
:1003500074205A2070726F6265203A20007A5F6DB7
:1003600061783A20007A5F6D696E3A20006F6666A8
:10037000736574205A2070726F6265006F666673D1
:100380006574205A2070726F6265206F6B007A5F0F
:100390006D61783A20007A5F6D696E3A2000795F6E
:1003A0006D61783A2000795F6D696E3A2000785F60
:1003B0006D61783A2000785F6D696E3A2000205AAE
:1003C0003A0020593A0020436F756E7420583A2045
:1003D0000020453A00205A3A0020593A00583A0085
:1003E0004649524D574152455F4E414D453A4D6148
:1003F000726C696E20312E302E322B20446576656A
:100400006C6F706D656E742046726F6D2041726303
:100410006869766520534F555243455F434F4445C5
:100420005F55524C3A68747470733A2F2F67697431
:100430006875622E636F6D2F4D61726C696E4669CF
:10044000726D776172652F4D61726C696E205052CA
:100450004F544F434F4C5F56455253494F4E3A31DC
:100460002E30204D414348494E455F545950453A3E
:100470004D5A33442D333630432045585452554459
:1004800045525F434F554E543A3120555549443AF1
:1004900030303030303030302D303030302D303062
:1004A00030302D303030302D303030303030303052
:1004B000303030300A004D5A33442D33363043202B
:1004C0004F544B042E0043544F04204841D09350C6
:1004D00045540020423A0020453A00543A00484131
:1004E000D0935045422043544F04412E2E2E0048B5
:1004F00041D093504542204206054F0448454800EC
:1005000020573A0020453A00543A004841D09350D1
:10051000454220434F0504412E2E2E002042403AF2
:100520000020403A00202F003A00205400202F00E5
:1005300020423A00202F006F6B20543A002569209A
:100540006D696E2C2025692073656300456E6420FB
:1005500066696C65206C69737400426567696E201A
:1005600066696C65206C69737400484554200142CB
:100570000302454803072E004D5A33442D333630CD
:100580004320D0934F544F420005504F014F040277
:1005900003546220334101414803450002015905DB
:1005A0004F015442455002014548030700434F485C
:1005B0002E2E2E0000002200250028002B002E00E9
:1005C0003100340002010000050108010B010000A8
:1005D00020002300260029002C002F0032000001FB
:1005E00000000301060109010505050507050808C6
:1005F0000808020202020A0A0808040404040101AD
:1006000001010101010103030303030303030407C1
:1006100007070C0C0C0C0C0C0C0C02020202060658
:100620000606060606060B0B0B0B0B0B0B0B01024B
:1006300010202008081020401020408002010201F4
:1006400008040201010204081020408080402010AC
:100650000804020180040201804020100804020105
:10066000080402010102040810204080010204086D
:100670001020408000000A0B02090C0D0E08070331
:100680000401000000000000000000000000000065
:10069000000000000000000000000000000000005A
:1006A0001211100000000000000000000000000017
:1006B00000000000000000000000022020506C61DB
:1006C0006E6E657242756666657242797465733ADC
:1006D00020002046726565204D656D6F72793A2065
:1006E00000417072203136203230313900436F6D55
:1006F00070696C65643A2000286E6F6E652C20640A
:10070000656661756C7420636F6E66696729002089
:100710007C20417574686F723A20004170722031FC
:100720003620323031392031323A34323A343900DD
:10073000204C61737420557064617465643A2000C4
:1007400020312E302E322B004D61726C696E0020EC
:10075000536F66747761726520526573657400200B
:100760005761746368646F67205265736574002015
:1007700042726F776E206F757420526573657400D6
:100780002045787465726E616C20526573657400E3
:10079000506F776572557000737461727400657282
:1007A000726F722077726974696E6720746F206649
:1007B000696C6500656E6473746F7073206869742A
:1007C0003A205A00205A3A00656E6473746F707351
:1007D000206869743A20590020593A00656E6473A4
:1007E000746F7073206869743A20580020583A007A
:1007F000656E6473746F7073206869743A20004486
:100800006F6E6520736176696E672066696C652E10
:10081000006F6B004D3239004D383420582059207C
:100820005A204500332E484554205344204B415014
:10083000540600332E5344204B415054410043543E
:100840004F0520334101414803450005504F014FFA
:10085000040203546220334101414803450005412D
:100860005933412033410141480345004D36303072
:1008700000434D4548035462204D415445500341C7
:100880000400322E054150414D4554500600312E92
:10089000054F01D0934F544F424B4100054F014348
:1008A00054504F034B41004B4F4854504F0462008B
:1008B000202020202020202053544F502020202072
:1008C0002020202020004731205830205930205A45
:1008D000313020463138303030004F43484F4248A5
:1008E0004F0320504133014504004731205A300066
:1008F0004731205831373220593130205A32204682
:100900003138303030004F43484F42484F03205079
:1009100041330145040020202020586D696E2020BD
:10092000596D6178004731205A30004731205831E5
:1009300037322059313934205A322046313830305C
:1009400030004F43484F42484F0320504133014548
:100950000400202020586D617820596D617800478F
:1009600031205A3000473120583130205931393444
:10097000205A3220463138303030004F43484F4201
:10098000484F032050413301450400202020586D7A
:10099000696E20596D617820004731205831302030
:1009A000593130205A30204636303030004731201F
:1009B0005A31204635303000473238004F43484FD7
:1009C00042484F032050413301450400202020209D
:1009D000435441505420200020054F544F4B3000C9
:1009E00020054F544F4B3000054F544F4B00054FDF
:1009F000544F4B00424548542E20434F05044100BC
:100A0000424548542E20434F05044100742043546E
:100A10004F0400742043544F04007420434F0504D6
:100A20004F007420434F05044F00434B4F504F433A
:100A3000546200434B4F504F435462004F43484F62
:100A400042484F03205041330145040041424200D7
:100A50000145023303034B044D484F05504354599D
:100A6000B758E1345757600662AFB00741424200C1
:100A70000145023303034B044D484F05504354597D
:100A8000B758E1345757600662AFB0072200656E71
:100A9000717565696E672022004D383420582059E1
:100AA000205A204500256920686F757273202569DA
:100AB000206D696E7574657300446F6E6520707289
:100AC000696E74696E672066696C65004F435441B6
:100AD000484F424E484F2E005072696E7465722026
:100AE00073746F707065642064756520746F206521
:100AF00072726F72732E2046697820746865206563
:100B000072726F7220616E6420757365204D393981
:100B10003920746F20726573746172742E202854AA
:100B2000656D706572617475726520697320726598
:100B30007365742E20536574206974206166746532
:100B4000722072657374617274696E6729004E6FEA
:100B5000204C696E65204E756D62657220776974F0
:100B60006820636865636B73756D2C204C617374CA
:100B7000204C696E653A20004E6F20436865636BB8
:100B800073756D2077697468206C696E65206E7569
:100B90006D6265722C204C617374204C696E653AED
:100BA0002000636865636B73756D206D69736D619B
:100BB0007463682C204C617374204C696E653A2014
:100BC000004C696E65204E756D62657220697320F8
:100BD0006E6F74204C617374204C696E65204E7585
:100BE0006D6265722B312C204C617374204C696EE0
:100BF000653A20004D313130000000364300004C92
:100C00004300001543000000000000000000000049
:100C1000000000000000000000000000004D323421
:100C2000004D3233202573006175746F25692E677E
:100C30000053442063617264206F6B006F70656EB7
:100C4000526F6F74206661696C656400766F6C75B5
:100C50006D652E696E6974206661696C6564004516
:100C600072726F723A00534420696E697420666133
:100C7000696C006563686F3A0020746F6F206C6F59
:100C80006E6720657874727573696F6E2070726517
:100C900076656E7465640020636F6C64206578749B
:100CA000727573696F6E2070726576656E746564B7
:100CB0000048035462200103414D20310048035491
:100CC00062200103414D2031004F544B0400424B40
:100CD00004004F544B0400424B0400204520D092A6
:100CE000206D6D3300322E054150414D4554500664
:100CF000004D3234004D32332025730043616E6E57
:100D00006F7420656E746572207375626469723ADF
:100D100020007B2E2E004F43484F42484F03205067
:100D2000413301450400202D20496E76616C6964D1
:100D3000206578747275646572206E756D62657277
:100D400020210070012C0190012701B0012201C077
:100D5000011D01F00118011002130130020E0160A3
:100D600002090190020401C002FF000003FA0040E2
:100D700003F5008003F000D003EB002004E60070D0
:100D800004E100E004DC004005D700C005D20040CB
:100D900006CD00D006C8008007C3003008BE00F0B2
:100DA00008B900C009B400B00AAF00B00BAA00D067
:100DB0000CA500000EA000500F9B00C01096005024
:100DC00012910000148C00C0158700B0178200B08B
:100DD000197D00D01B7800001E730040206E00902B
:100DE000226900F024640040275F0090295A00E047
:100DF0002B5500102E500020304B0010324600E0E2
:100E000033410090353C001037370070383200A075
:100E1000392D00B03A2800A03B2300603C1E001092
:100E20003D1900903D1400103E0F00703E0A00C0B6
:100E30003E0500003F00004572723A204D41585473
:100E4000454D50003A204578747275646572207380
:100E500077697463686564206F66662E204D41581B
:100E600054454D502074726967676572656420212E
:100E7000004572723A204D494E54454D50003A207B
:100E800045787472756465722073776974636865F8
:100E900064206F66662E204D494E54454D50207497
:100EA00072696767657265642021004572723A2035
:100EB0004D415854454D50204245440054656D7095
:100EC000657261747572652068656174656420621D
:100ED0006564207377697463686564206F66662E45
:100EE000204D415854454D502074726967676572B2
:100EF0006564202121002D2D3A2D2D002D2D2D0052
:100F0000534400DF2000DF200057726974696E6768
:100F100020746F2066696C653A20002E006F706542
:100F20006E206661696C65642C2046696C653A20A8
:100F3000002E006F70656E206661696C65642C2000
:100F400046696C653A200046696C652073656C657E
:100F500063746564002053697A653A200046696CC1
:100F600065206F70656E65643A20002E006F7065B5
:100F70006E206661696C65642C2046696C653A2058
:100F8000004E6F772066726573682066696C653AFB
:100F900020004E6F7720646F696E672066696C650C
:100FA0003A20002220706F73002220706172656EFB
:100FB000743A2200535542524F5554494E452043EE
:100FC000414C4C207461726765743A2200747279E6
:100FD000696E6720746F2063616C6C207375622D7D
:100FE00067636F64652066696C65732077697468F0
:100FF00020746F6F206D616E79206C6576656C73FF
:101000002E204D4158206C6576656C2069733A003E
:10101000580059005A00457874727564657200056D
:101020004F204F430320452028055059544F4B294A
:1010300000054F204F4303205A00054F204F430324
:10104000205900054F204F4303205800014203025E
:101050004548034520054F204F43074D0048412098
:10106000302E316D6D00484120316D6D00484120BA
:1010700031306D6D00312E054F01D0934F544F42EA
:101080004B41000343584F0148064520054150415C
:101090004D45545006003341D0935059334B4120B5
:1010A0000333204550524F4D00434F5850414803A1
:1010B00054622042204550524F4D004D41544550FE
:1010C00003410400434B4F504F4354620054454D7D
:1010D0000545504154595041004F43484F42484FF5
:1010E00003205041330145040048414354504F030D
:1010F0004B03204142530048414354504F034B039C
:1011000020504C41005049442D43005049442D4348
:1011100000202A054F055041424B4100202A054F2F
:10112000055041424B4100202A74204D414B430061
:10113000202A74204D414B4300202A74204D03483F
:1011400000202A74204D0348004F544B0400424BAA
:1011500004004F544B0400424B04004142544F548E
:10116000454D0500424548542E20434F050441009B
:10117000424548542E20434F0504410074204354F7
:101180004F0400742043544F04007420434F05045F
:101190004F007420434F05044F00322E054150414B
:1011A0004D455450060024F4D43050C38E20C2A2C2
:1011B0004017828B7011127A910D816CD90AA86147
:1011C000E108C7586607615143061E4B5D05C145DE
:1011D000A7041A411104093D9803713931034036BF
:1011E000DB0265339102D4305402802E1D02632C41
:1011F000EE01752AC501B028A001102781018F25B5
:1012000064012B244B01E0223401AC211F018D200D
:101210000D01801FFC00841EED00971DDF00B81C2F
:10122000D200E61BC600201BBC00641AB200B21933
:10123000A8000A19A0006A189900D1179100401758
:101240008B00B516840031167E00B31579003A156F
:101250007300C7146F0058146A00EE1366008813F9
:10126000630025135E00C7125B006C125700151255
:101270005400C111510070114F0021114B00D610C4
:1012800049008D1047004610440002104200C00F74
:101290004000800F3E00420F3C00060F3B00CB0E8B
:1012A0003800930E37005C0E3500270E3400F30D26
:1012B0003200C10D3100900D3000600D2E00320D56
:1012C0002D00050D2C00D90C2B00AE0C2900850C2F
:1012D00029005C0C2700350C27000E0C2600E80BBB
:1012E0002400C40B2400A00B23007D0B23005A0B09
:1012F0002100390B2100180B2000F80A1F00D90A21
:101300001E00BB0A1E009D0A1D00800A1D00630A04
:101310001C00470A1B002C0A1B00110A1A00F709BF
:101320001A00DD091900C4091900AB091900920956
:1013300017007B091800630917004C0916003609CD
:101340001600200916000A091500F5081500E00826
:101350001400CC081400B8081400A4081400900865
:1013600013007D0812006B0813005808120046088D
:10137000120034081100230811001208110001089E
:101380001100F0071000E0071000D0071000C007A0
:101390001000B0070F00A107100091070E0083078F
:1013A0000F0074070F0065070E0057070E0049076E
:1013B0000E003B070D002E070E0020070D0013073F
:1013C0000D0006070D00F9060C00ED060D00E00605
:1013D0000C00D4060C00C8060C00BC060C00B006BD
:1013E0000C00A4060B0099060C008D060B0082066B
:1013F0000B0077060B006C060B0061060A0057060F
:101400000B004C060A0042060A0038060A002E06A7
:101410000A0024060A001A060A0010060900070638
:101420000A00FD050900F4050900EB050900E205C5
:101430000900D9050900D0050900C7050900BE0546
:101440000900B5050800AD050800A50509009C05C3
:101450000800940508008C050800840508007C0538
:101460000800740508006C050700650508005D05A7
:101470000700560508004E05070047050700400510
:10148000080038050700310507002A050700230575
:1014900007001C050600160507000F0507000805D4
:1014A000060002050700FB040600F5040700EE0431
:1014B0000600E8040600E2040700DB040600D50489
:1014C0000600CF040600C9040600C3040600BD04DC
:1014D0000600B7040600B1040500AC040600A6042B
:1014E0000600A00405009B04060095040500900476
:1014F00006008A04050085040500800406007A04BD
:10150000050075040500700405006B040500660401
:101510000500610405005C04050057040500520441
:1015200005004D04050048040500430405003E0481
:1015300004003A04050035040500300404002C04BE
:10154000050027040400230405001E0404001A04F7
:10155000040016040500110404000D04040009042D
:1015600005000404040000040400FC030400F80364
:101570000400F4030400F0030400EC030400E80397
:101580000400E4030400E0030400DC030400D803C7
:101590000400D4030400D0030400CC030400C803F7
:1015A0000300C503030024F404D9201BC40C5C0E03
:1015B0009804C4095F0265077101F405F900FB0492
:1015C000B30048048700C1036900580355000303B2
:1015D0004500BE023A008402310053022A0029026B
:1015E000250004022000E4011C00C8011900AF011D
:1015F00017009801140084011300710110006101AB
:10160000100051010E0043010D0036010B002B01AB
:101610000B0020010B00150109000C01090003015A
:101620000800FB000800F3000800EB000700E400DE
:101630000600DE000600D8000600D2000600CC003E
:101640000500C7000500C2000500BD000400B90088
:101650000400B5000400B1000400AD000400A900BE
:101660000400A5000300A20003009F0004009B00EB
:10167000030098000300950002009300030090000F
:1016800003008D0002008B0003008800020086002A
:10169000020084000300810002007F0002007D0040
:1016A00002007B0002007900020077000100760052
:1016B00002007400020072000100710002006F005D
:1016C00002006D0001006C0002006A000100690068
:1016D000020067000100660001006500010064006F
:1016E00002006200010061000100600001005F0073
:1016F00002005D0001005C0001005B0001005A0077
:101700000100590001005800010057000100560077
:101710000100550001005400010053000000530077
:1017200001005200010051000100500001004F0073
:1017300001004E0000004E0001004D0001004C0071
:1017400001004B0000004B0001004A00010049006D
:101750000100480000004800010047000100460069
:101760000000460001004500000045000100440063
:10177000010043000000430001004200000042005D
:1017800001004100000041000100400001003F0055
:1017900000003F0001003E0000003E0001003D004F
:1017A00000003D0001003C0000003C0000003C0047
:1017B00001003B0000003B0001003A0000003A003D
:1017C0000100390000003900010038000000380035
:1017D000000038000100370000003700010036002B
:1017E0000000360000003600010035000000350022
:1017F0000000350001003400000034000000340017
:10180000010033000000330000003300010032000B
:101810000000320000003200010031000000310001
:1018200000003100010030000000300000003000F6
:1018300001002F0000002F0000002F0000002F00EB
:1018400001002E0000002E0000002E0001002D00DF
:1018500000002D0000002D0000002D0001002C00D4
:1018600000002C0000002C0000002C0001002B00C8
:1018700000002B0000002B0000002B0001002A00BC
:1018800000002A0000002A0000002A0001002900B0
:1018900000002900000029000000290000002900A4
:1018A0000100280000002800000028000000280097
:1018B000000028000100270000002700000027008A
:1018C000000027000000270001002600000026007D
:1018D0000000260000002600000026000100250070
:1018E0000000250000002500000025000000250064
:1018F0000000250001002400000024000000240056
:101900000000240000002400010023000000230048
:10191000000023000000230000002300000023003B
:10192000000023000100220000002200000022002D
:10193000000022000000220000002200010021001F
:101940000000210000002100000021000000210013
:101950000000210000002100010020000000200004
:1019600000002000000020000000200000002000F7
:10197000000020000000200001001F0000001F00E8
:1019800000001F0000001F0000001F0000001F00DB
:1019900000001F0001001E0000001E0000001E00CD
:1019A00000001E0000004D383420582059205A20D5
:1019B00045007C3C3E5E2B3D3F2F5B5D3B2C2A224D
:1019C0005C0053657474696E67732053746F72653D
:1019D00064002044002049002020204D3330312075
:1019E00050005049442073657474696E67733A00FF
:1019F000205A0020590020204D323036205800480F
:101A00006F6D65206F666673657420286D6D293A69
:101A100000204500205A0020580020420020540099
:101A200020204D323035205300416476616E63656D
:101A300064207661726961626C65733A20533D4D32
:101A4000696E20666565647261746520286D6D2F0E
:101A500073292C20543D4D696E2074726176656C3B
:101A600020666565647261746520286D6D2F732929
:101A70002C20423D6D696E696D756D207365676DD3
:101A8000656E742074696D6520286D73292C20584B
:101A90003D6D6178696D756D205859206A65726B6E
:101AA00020286D6D2F73292C20205A3D6D61786997
:101AB0006D756D205A206A65726B20286D6D2F73CD
:101AC000292C2020453D6D6178696D756D2045207C
:101AD0006A65726B20286D6D2F73290020540020D9
:101AE000204D323034205300416363656C65726170
:101AF00074696F6E3A20533D616363656C65726112
:101B000074696F6E2C20543D726574726163742029
:101B1000616363656C65726174696F6E0020450076
:101B2000205A0020590020204D3230312058004DDD
:101B30006178696D756D20416363656C6572617470
:101B4000696F6E20286D6D2F7332293A0020450091
:101B5000205A0020590020204D3230332058004DAB
:101B60006178696D756D2066656564726174657311
:101B700020286D6D2F73293A00204500205A00203F
:101B8000590020204D39322058005374657073205D
:101B900070657220756E69743A0053746F72656473
:101BA0002073657474696E677320726574726965F9
:101BB0007665640048617264636F6465642044659F
:101BC0006661756C742053657474696E6773204C1C
:101BD0006F6164656400484554204B4150540600D1
:101BE0004B41505441204243544142044548410036
:101BF00000002100240027002A002D0030003300BF
:101C000001010000040107010A014F544D454845F8
:101C1000484F005072696E7465722068616C74651B
:101C2000642E206B696C6C28292063616C6C656480
:101C300021004F435441484F424E484F2E005072AE
:101C4000696E7465722073746F707065642064755A
:101C50006520746F206572726F72732E20466978EA
:101C600020746865206572726F7220616E642075E1
:101C70007365204D39393920746F20726573746132
:101C800072742E202854656D70657261747572656A
:101C90002069732072657365742E20536574206902
:101CA0007420616674657220726573746172746900
:101CB0006E6729000000A0400000A0400000004026
:101CC0000000364300004C4300001543FFFFFF2295
:101CD00000656E717565696E672022004841334169
:101CE00001004841D093504554622043544F0400B2
:101CF000055045014841D09350454220504C412069
:101D000031004841334101004841D093504554626D
:101D10002043544F0400055045014841D09350459D
:101D2000422041425320310047393220453000479C
:101D30003120453730204632353000473932204592
:101D400030004206435441420354622059504F42EE
:101D5000454862003341D093505933035462204DBB
:101D600041544550034104000142030245480345E4
:101D700020054F204F43074D00055045014841D0F5
:101D8000935045422041425300055045014841D0FF
:101D90009350454220504C41004F544B042E204854
:101DA00041D093504542004D3834004F544B042EDF
:101DB000204D4F544F500600473238000541504BDC
:101DC0004F424B41004F43484F42484F0320504140
:101DD00033014504004573746570732F6D6D0045C4
:101DE00073746570732F6D6D00412D72657472612F
:101DF000637400412D7265747261637400416D619A
:101E000078206500416D6178206500416D61782022
:101E10007A00416D6178207A00416D617820790007
:101E2000416D6178207900416D6178207800416DC5
:101E300061782078005654726176206D696E005684
:101E400054726176206D696E00566D696E00566D34
:101E5000696E00566D61786500566D617865005653
:101E60006D61787A00566D61787A00566D61787987
:101E700000566D61787900566D61787800566D6115
:101E80007878004163630041636300322E0541505E
:101E9000414D4554500600434F5850414803546249
:101EA0002042204550524F4D00742043544F0400AF
:101EB000742043544F04007420434F05044F0074B2
:101EC00020434F05044F00424548542E20434F0500
:101ED000044100424548542E20434F05044100541C
:101EE000454D054550415459504100434F585041CC
:101EF000480354622042204550524F4D0074204305
:101F0000544F0400742043544F04007420434F0581
:101F1000044F007420434F05044F00424548542E9F
:101F200020434F05044100424548542E20434F05AD
:101F300004410054454D054550415459504100520B
:101F40006573656E643A20006F6B0000CAB994BA7D
:101F500011241FBECFEFD1E2DEBFCDBF00E00CBF2A
:101F600015E0A0E0B2E0ECE5FCE801E00BBF02C048
:101F700007900D92AC31B107D9F722E1ACE1B5E0A1
:101F800001C01D92AE3FB207E1F71FE0C7EADFE0F4
:101F900000E006C021970109802FFE010E9497C52D
:101FA000C63AD10780E00807A9F70E9469B40C94EB
:101FB0001DC60C9400002F923F924F925F926F9239
:101FC0007F928F929F92AF92BF92CF92DF92EF92C9
:101FD000FF920F931F93CF93DF93CDB7DEB7C55614
:101FE000D1090FB6F894DEBF0FBECDBF87E40E94C3
:101FF000B63CF82E882309F41BC40E94DC3C0E94E6
:1020000029C36430710509F4F4C054F462307105D9
:1020100009F4D7C00CF0E1C077FF17C00C94532D22
:102020006A35710509F4B9C334F46C31710509F4EA
:1020300027C10C94532D6B35710509F4B2C36C356F
:10204000710509F4B3C30C94532D80913F0C811199
:102050000C94532D0E945EB381E892E10E9432AF4E
:102060000E9479986093650C7093660C8093670C5E
:102070009093680C209181123091821240918312CA
:1020800050918412609140097091410980914209F8
:10209000909143090E9482BE811174C020918512E3
:1020A00030918612409187125091881260914409B4
:1020B0007091450980914609909147090E9482BE1E
:1020C000811160C020E030E040E752E46091690295
:1020D00070916A0280916B0290916C020E94C1C261
:1020E0003AE6C32E3CE0D32E7B018C012DE832E191
:1020F00049E852E165E872E181E892E10E947E4B95
:102100008091811290918212A0918312B0918412D9
:102110008093400990934109A0934209B0934309E9
:102120008091851290918612A0918712B0918812A9
:102130008093440990934509A0934609B0934709B9
:102140008091891290918A12A0918B12B0918C1279
:102150008093480990934909A0934A09B0934B0989
:1021600080918D1290918E12A0918F12B091901249
:1021700080934C0990934D09A0934E09B0934F0959
:102180000C94532D6091150270911602072E000CCD
:10219000880B990B0E9488BE2091690230916A02D7
:1021A00040916B0250916C020E94B8BA20E030E07E
:1021B00040E752E40E94C1C220E030E048EC52E423
:1021C0008DCF80913F0C81110C94532D0E94E2B36E
:1021D00081E00E94CBAF0C94532D80913F0C811174
:1021E0000C94532D0E94E2B380E00E94CBAF0C947C
:1021F000532D8DEA95E00E947D9C80E50E94B63CBF
:10220000882339F00E94DC3C0E942EC36B017C01C4
:1022100003C0C12CD12C760183E50E94B63C8823F3
:1022200061F00E94DC3C20E030E04AE754E40E9488
:10223000B8BA0E942EC36B017C010E94D7800E9415
:102240007998C60ED71EE81EF91E0E9479986093F1
:10225000650C7093660C8093670C9093680C0E94D9
:1022600079986C157D058E059F0510F00C94532D03
:102270000E94737D80E00E9407A10E949D9CEFCF89
:102280008091690290916A02A0916B02B0916C02F8
:102290008093580590935905A0935A05B0935B0518
:1022A00080911502909116029093570580935605E0
:1022B00084E690E090931602809315020E9479982C
:1022C0006093650C7093660C8093670C9093680C18
:1022D00011E0109310028091400990914109A09162
:1022E0004209B09143098093811290938212A09386
:1022F0008312B09384128091440990914509A09172
:102300004609B09147098093851290938612A09355
:102310008712B09388128091480990914909A09141
:102320004A09B0914B098093891290938A12A09325
:102330008B12B0938C1280914C0990914D09A09111
:102340004E09B0914F0980938D1290938E12A093F5
:102350008F12B09390121092690210926A0210923A
:102360006B0210926C0288E50E94B63C882311F043
:1023700080E009C089E50E94B63C8111F9CF8AE569
:102380000E94B63C81278093020281110CC088E52F
:102390000E94B63C882309F454C189E50E94B63CEA
:1023A000882309F44EC110924009109241091092FD
:1023B0004209109243091092440910924509109263
:1023C000460910924709ECECFCE114910E94B446D6
:1023D00080EC9CE10E94623C20E030E040EC5FE356
:1023E0000E94B8BA6B017C01612F110F770B880B2B
:1023F000990B0E9488BE9B01AC01C701B6010E94E7
:10240000B8BA609381127093821280938312909372
:10241000841284EC9CE10E94623CEDECFCE114919E
:1024200020E030E040EC5FE30E94B8BA6B017C0131
:10243000612F110F770B880B990B0E9488BE9B01AF
:10244000AC01C701B6010E94B8BA609385127093BF
:102450008612809387129093881280E090E8ABEB0D
:10246000B5E48093690290936A02A0936B02B093E3
:102470006C0280EC9CE10E94623C6B017C0184EC6C
:102480009CE10E94623C9B01AC01C701B6010E9425
:1024900010C4181614F00C94562D84EC9CE10E9484
:1024A000623C6B017C0180EC9CE10E94623C9B01E0
:1024B000AC01C701B6010E94C1C29B01AC010E94E0
:1024C000B8BA20E030E040E85FE30E94E5C10E9436
:1024D000FBC49B01AC016091690270916A0280911A
:1024E0006B0290916C020E94B8BA6093690270937B
:1024F0006A0280936B0290936C0220E030E040E728
:1025000052E46091690270916A0280916B0290912D
:102510006C020E94C1C22AE6C22E2CE0D22E7B01A0
:102520008C012DE832E149E852E165E872E181E889
:1025300092E10E947E4B0E94D78080E090E00E9452
:10254000683C81E090E00E94683C0E94B446809123
:10255000400990914109A0914209B09143098093AB
:10256000811290938212A0938312B093841280916F
:10257000440990914509A0914609B091470980937B
:10258000851290938612A0938712B093881220E050
:1025900030E040E752E46091690270916A028091F4
:1025A0006B0290916C020E94C1C27B018C012DE8EC
:1025B00032E149E852E165E872E181E892E10E9486
:1025C0007E4B1092690210926A0210926B02109276
:1025D0006C020E94D7801092960510929505109279
:1025E00094058091811290918212A0918312B091F2
:1025F00084128093400990934109A0934209B093BB
:1026000043098091851290918612A0918712B09112
:1026100088128093440990934509A0934609B0938A
:1026200047098091891290918A12A0918B12B091E2
:102630008C128093480990934909A0934A09B0935A
:102640004B098091020281110C94602D88E50E9453
:10265000B63C81110C94602D8091020281110C9482
:10266000662D89E50E94B63C81110C94662D88E5A3
:102670000E94B63C8823D1F00E94D13C672B682B86
:10268000692BA1F00E94DC3C2091260530912705A2
:1026900040912805509129050E94E5C160934009A9
:1026A00070934109809342099093430989E50E9400
:1026B000B63C8823D1F00E94D13C672B682B692B54
:1026C000A1F00E94DC3C20912A0530912B0540911D
:1026D0002C0550912D050E94E5C16093440970932B
:1026E0004509809346099093470980910202811120
:1026F0000C946C2D8AE50E94B63C81110C946C2DD3
:102700008AE50E94B63C8823D1F00E94D13C672B19
:10271000682B692BA1F00E94DC3C20912E053091A2
:102720002F0540913005509131050E94E5C160931D
:1027300048097093490980934A0990934B090E9474
:10274000B446109210028091580590915905A091BD
:102750005A05B0915B058093690290936A02A09339
:102760006B02B0936C02809156059091570590933F
:102770001602809315020E9479986093650C7093FD
:10278000660C8093670C9093680C109296051092DB
:102790009505109294050C94532D1092DB120C9415
:1027A000532D81E08093DB120C94532D85E40E941D
:1027B000B63C811102C00E94D780BDEAAB2EB3E0C7
:1027C000BB2E10E4E12E19E0F12E06E2C02E05E04A
:1027D000D02E10E0D5018D915D010E94B63C88237A
:1027E000E1F0133051F40E94DC3CF7016083718307
:1027F000828393830E944D7310C00E94DC3CD601FB
:102800002D913D914D915C910E94E5C1F70160834E
:102810007183828393830E94B4461F5FF4E0EF0EBE
:10282000F11C24E0C20ED11C1430A1F60C94532DDF
:102830008DE40E94B63C882311F40C94842C0E94F1
:10284000DC3C0E9429C36237710511F40C945A1EB6
:102850000CF091C06F31710509F43BC5ACF56631E0
:10286000710509F442C2C4F46131710509F4D3C1A0
:1028700034F46230710508F42EC10C94532D643188
:10288000710509F4D9C10CF02CC26231710511F443
:102890000C946D1D0C94532D6A31710509F45EC2C0
:1028A0003CF46831710509F43CC20CF424C24CC2FA
:1028B0006C31710509F4B4C20CF45EC26E3171055D
:1028C00009F4E0C20C94532D6535710511F40C9494
:1028D000A51DE4F46135710511F40C944D1D54F4FB
:1028E0006032710509F456C46A32710509F479C57C
:1028F0000C94532D6335710511F40C94681D14F07C
:102900000C946D1D1092DF120C94532D6A367105D4
:1029100011F40C941D1DE4F46836710509F4A8C582
:102920000CF0D9C56C35710511F00C94532D1DEACE
:10293000812E13E0912E04E719E089EBA82E82E1A5
:10294000B82E22E93CE03CAF2BAF312C0C94271E73
:102950006D36710509F4ACC66037710509F4A8C578
:102960006B36710511F00C94532D1092870C109258
:10297000860C0C94532D6D3D710511F40C949E2121
:102980000CF04AC06E3B710509F452C7FCF467377E
:10299000710509F49CC064F46337710511F40C945B
:1029A000371E6537710511F40C94461E0C94532D97
:1029B0006937710511F40C943C1F14F40C94381F02
:1029C0006C38710509F476C50C94532D6C3C710577
:1029D00011F40C94EC208CF4693C710511F40C9406
:1029E000AA206B3C710511F40C94CD20683C710554
:1029F00011F00C94532D0C9435206E3C710511F49C
:102A00000C946E2114F40C940E216C3D710511F49C
:102A10000C948D210C94532D643F31E0730711F415
:102A20000C947B294CF56E3251E0750711F40C942F
:102A30003F2684F46C3291E0790711F40C9428223B
:102A400014F00C94D924623E710511F40C94C82141
:102A50000C94532D6033B1E07B0711F40C949F2547
:102A600014F40C9453266039714011F00C94532DDA
:102A70000E94D7800C94532D683522E0720711F420
:102A80000C94542A94F4663F41E0740711F40C94BA
:102A9000812914F40C947E29673F714011F00C9445
:102AA000532D0E94E2910C94532D603A93E07907E4
:102AB00009F4DAC3673EA3E07A0711F40C946D2C95
:102AC0006335734011F00C94532D0C948429E0EC81
:102AD000F3E00C94471FE0912405F09125058F0148
:102AE0000E5F1F4F80E50E94B63C882371F00E9464
:102AF000DC3C0E942EC36B017C01AA24A394672BAB
:102B0000682B692B31F4A12C04C0A12CC12CD12C31
:102B1000760183E50E94B63C882391F00E94DC3C5C
:102B200020E030E04AE754E40E94B8BA0E942EC385
:102B30006B017C01BB24B394672B682B692B09F4D0
:102B4000B12C6AE270E0C8010E94E5C5009711F05F
:102B5000FC011082F801CF0121912032E1F3A11094
:102B600007C0B11005C0222319F00E94909C04C038
:102B70008CE995E00E947D9C81E080934C0C109242
:102B80004B0C0E94D7800E9479986093650C7093DB
:102B9000660C8093670C9093680CC114D104E10417
:102BA000F104C9F00E947998C60ED71EE81EF91EDE
:102BB0000E9479986C157D058E059F05C0F4809163
:102BC000690C82FD14C00E94737D80E00E9407A101
:102BD0000E949D9CEDCF8091690C82FD0CC00E94EB
:102BE000737D80E00E9407A10E949D9CF4CF10920B
:102BF0004C0C10924B0C80919E09882331F089E88F
:102C000095E00E947D9C0C94532D88E795E00E94EE
:102C10007D9C0C94532D8AE695E00E947D9C5F98E4
:102C20008A989FB7F894809108018E7F809308015D
:102C30009FBF12980C94532DEAE5F5E08491882308
:102C400041F09091C00095FFFCCF8093C600319673
:102C5000F5CF8091C00085FFFCCF8AE08093C6004D
:102C60001092250C1092240C40E050E0BA018FEC39
:102C700099E00E9406898BE1EFECF9E0DE01159600
:102C800001900D928A95E1F78091CD099091CE093E
:102C90009C838B8389E093E09A83898340E050E0B2
:102CA000BE016F5F7F4F88EA94E00E943F6ECE01C5
:102CB00001960E94F19FECE4F5E08491882341F0B5
:102CC0009091C00095FFFCCF8093C6003196F5CF60
:102CD0008091C00085FFFCCF8AE08093C6000C94F1
:102CE000532D0E9450470C94532D10929E09109220
:102CF0009F090C94532D00912405109125050C5F1C
:102D00001F4F6AE270E0C8010E94E5C5009711F00C
:102D1000DC011C9241E061E0C8010E9422700C9429
:102D2000532D80919F09882319F081E080939E099B
:102D30000E9479986093430C7093440C8093450CE7
:102D40009093460C0C94532D80919E09882311F486
:102D50000C94532D10929E090C94532D80919F0931
:102D6000882311F40C94532D83E50E94B63C811105
:102D70000C94722D0C94532D80919F09882309F493
:102D800039C0EBECF1E08491882341F09091C000D0
:102D900095FFFCCF8093C6003196F5CF60911F0C54
:102DA0007091200C8091210C9091220C4AE00E949D
:102DB0000245E9ECF1E08491882341F09091C00054
:102DC00095FFFCCF8093C6003196F5CF6091170C2C
:102DD0007091180C8091190C90911A0C4AE00E9485
:102DE00002458091C00085FFFCCF8AE08093C60039
:102DF0000C94532DEDEDF1E08491882341F09091F6
:102E0000C00095FFFCCF8093C6003196F5CF80912E
:102E1000C00085FFFCCF8AE08093C6000C94532D40
:102E200080912405909125056AE270E004960E9445
:102E3000E5C58C01892BD9F020911707309118072F
:102E400040E6429FC001439F900D11246EE470E064
:102E500089569A4F0E94E5C560E270E00E94E5C580
:102E600001969093250580932405F80110828091A6
:102E700024059091250541E060E004960E942270AF
:102E80000C94532D80919F09882311F40C94532D99
:102E90008AE69BE00E94C3888AE69BE00E943F8A04
:102EA00010929C0910929D0980912405909125050E
:102EB0006AE270E004960E94E5C58C01892BD9F086
:102EC000209117073091180740E6429FC001439FA9
:102ED000900D11246EE470E089569A4F0E94E5C56A
:102EE00060E270E00E94E5C501969093250580930D
:102EF0002405D8011C92009124051091250580918C
:102F00009F09882311F40C94532D5801B4E0AB0EA3
:102F1000B11C8AE69BE00E943F8A10929E091D82A6
:102F200018861C821B8289E093E09A8389838BEC4C
:102F300099E09093EB098093EA09F80184818F323C
:102F400009F090C06FE270E0C5010E94E5C58C01F8
:102F50000F5F1F4FAAE0EA2E9E012F5F3F4F4901EE
:102F60000115110509F484C06FE270E0C8010E94E8
:102F7000E5C56C01009709F47CC00817190708F033
:102F800078C03C01601A710AA301B801CE01809695
:102F90000E940EC6E0E2F0E0EC0FFD1FE60DF71D0B
:102FA00010828E01005E1F4FF8018191882339F055
:102FB0009091C00095FFFCCF8093C600F6CF809122
:102FC000C00085FFFCCFE092C6006091EA097091D5
:102FD000EB096115710511F06C5F7F4F21E0AE01C7
:102FE000405E5F4FCE0105960E94508F811132C026
:102FF000E7E1F2E08491882371F09091C00095FFA1
:10300000FCCF8093C6003196F5CF9091C00095FF1C
:10301000FCCF8093C600D8018D918D018111F5CF31
:10302000E5E1F2E08491882341F09091C00095FFA2
:10303000FCCF8093C6003196F5CF8091C00085FF0C
:10304000FCCF8AE08093C600CE0101960E94F19FDA
:103050000C94532D9092EB098092EA0986010F5F40
:103060001F4F7ECF8CEE99E09093EB098093EA0995
:1030700085016091EA097091EB096115710511F004
:103080006C5F7F4F18A21BA222E0A801CE018096A0
:103090000E94508F8823F1F0CE0180960E94AD6D82
:1030A0008823C1F06CA57DA58EA59FA541E00E9457
:1030B000D157882379F0E8A9B0E2EB9FF001112401
:1030C000EB5DF84F309731F085EE80831BA20E94B4
:1030D0009157F82ECE0180960E94BC41FF2041F10D
:1030E000E7E0F2E08491882341F09091C00095FFE1
:1030F000FCCF8093C6003196F5CFF80181918823EB
:1031000039F09091C00095FFFCCF8093C600F6CFB8
:103110008091C00085FFFCCF8AE08093C6001092AA
:103120001F0C1092200C1092210C1092220C2CC01B
:10313000EFEEF1E08491882341F09091C00095FF7B
:10314000FCCF8093C6003196F5CFF801819188239A
:1031500039F09091C00095FFFCCF8093C600F6CF68
:10316000EDEEF1E08491882341F09091C00095FF4D
:10317000FCCF8093C6003196F5CF8091C00085FFCB
:10318000FCCF8AE08093C600CE0101960E94F19F99
:103190000C94532D80919E0981110E94D78000913B
:1031A0002405109125050C5F1F4F6AE270E0C801ED
:1031B0000E94E5C57C0161E270E0C8010E94E5C59E
:1031C000009719F08C010F5F1F4FE114F10411F00B
:1031D000F701108280E50E94B63CF82E809124050C
:1031E000909125050817190708F4F12C80919F0983
:1031F000882311F40C94532D41E04F2561E0C80160
:103200000E94227083E50E94B63C8823B9F0809129
:103210002405909125058017910780F40E94D13CE8
:10322000AB01BC0140931F0C5093200C6093210C08
:103230007093220C8AE69BE00E94068980919F0988
:10324000882319F081E080939E09F1100C94532D8E
:103250000E9479986093430C7093440C8093450CC2
:103260009093460C0C94532D809124059091250544
:103270006AE270E005960E94E5C58C01892BD9F0C1
:10328000209117073091180740E6429FC001439FE5
:10329000900D11246EE470E089569A4F0E94E5C5A6
:1032A00060E270E00E94E5C5019690932505809349
:1032B0002405D8011C92809124059091250521E0D8
:1032C00020939D0941E060E005960E9422700C94D5
:1032D000532D0E9479986093200570932105809367
:1032E0002205909323050091430C1091440C2091EA
:1032F000450C3091460C601B710B820B930B28EE32
:1033000033E040E050E00E94A9C1CA01B9012CE3BA
:1033100030E040E050E00E94A9C17F936F933F935B
:103320002F938DE395E09F938F938E010F5F1F4F37
:103330001F930F930E9453BEE3E7FCE094910FB6F6
:10334000F894DEBF0FBECDBFE3E7FCE0992349F060
:103350008091C00085FFFCCF9093C6003196949178
:10336000F5CFF8018191882339F09091C00095FF45
:10337000FCCF8093C600F6CF8091C00085FFFCCFC4
:103380008AE08093C600C8010E94909C8091850CC1
:10339000882311F40C94532D1092850C00916A0C23
:1033A00010E0000F111F0857134FD8016D917C9149
:1033B000072E000C880B990B0E9488BE20913402C6
:1033C0003091350240913602509137020E9410C46C
:1033D000181614F00C94532DF801118210820C94DD
:1033E000532D83E50E94B63C882311F40C94532D91
:1033F0000E94DC3C0E9429C3F62EE72E862F9E2DCC
:103400008C0180E50E94B63C882331F00F3F110506
:1034100009F010F40C94832D0DE010E0E9E7F2E0E0
:10342000819191918017910711F40C94532D22E012
:10343000E13BF207A9F70930110539F48F2D9E2DD4
:103440009093870C8093860C04C017FF02C00C94E5
:10345000532D61E0802F0E943D976F2D802F0E9499
:1034600098316F2D7E2D802F0E9479970C94532DCB
:1034700088E690E00E94F99F81110C94532D83E51A
:103480000E94B63C882311F40C94532D10918012A5
:103490000E94DC3C212F30E0220F331F89010857A6
:1034A000134F0E9429C3D8016D937C930C94532D24
:1034B0000E94C0A083E50E94B63C882311F40C94BE
:1034C000532D0E94DC3C0E9429C3709381056093B8
:1034D00080050C94532D89E690E00E94F99F81119C
:1034E0000C94532DE7E3F5E08491882341F090910B
:1034F000C00095FFFCCF8093C6003196F5CFE091D8
:103500008012B4E0EB9FF0011124E756FD4E60817C
:1035100071818281938141E00E948945E4E3F5E075
:103520008491882341F09091C00095FFFCCF809357
:10353000C6003196F5CFE0918012F0E0EE0FFF1F4C
:10354000E857F34F60817181072E000C880B990BAF
:103550000E9488BE41E00E948945E0E3F5E0849145
:10356000882341F09091C00095FFFCCF8093C60066
:103570003196F5CF6091470C7091480C8091490CC1
:1035800090914A0C41E00E948945EDE2F5E084917A
:10359000882341F09091C00095FFFCCF8093C60036
:1035A0003196F5CF6091800570918105072E000C52
:1035B000880B990B0E9488BE41E00E948945EAE28F
:1035C000F5E08491882341F09091C00095FFFCCFF5
:1035D0008093C6003196F5CF60E070E0CB010E9489
:1035E0007745E8E2F5E08491882341F09091C000AE
:1035F00095FFFCCF8093C6003196F5CF609199126C
:1036000070919A1280919B1290919C1241E00E94BD
:103610008945E5E2F5E08491882341F09091C0006E
:1036200095FFFCCF8093C6003196F5CF6091880C52
:103630007091890C072E000C880B990B0E9488BE94
:1036400041E00E948945E1E2F5E08491882341F060
:103650009091C00095FFFCCF8093C6003196F5CFC6
:10366000E0918012F0E0EE5BF34F608170E080E06B
:1036700090E00E947745ECE1F5E08491882341F0E9
:103680009091C00095FFFCCF8093C6003196F5CF96
:103690006091410C70E080E090E00E94774580915D
:1036A000C00085FFFCCF8AE08093C6000C942831CF
:1036B0008DE690E00E94F99F81110C94532D8BE0D0
:1036C00095E00E947D9C1092850C83E50E94B63C9B
:1036D0008823A1F0109180120E94DC3C212F30E061
:1036E000220F331F89010857134F0E9429C3F80185
:1036F0007183608381E08093010217C082E50E949C
:10370000B63C882391F0109180120E94DC3C212F5E
:1037100030E0220F331F89010857134F0E9429C33D
:10372000D8016D937C931092010283E50E94B63C10
:10373000882351F00E94DC3C609334027093350280
:10374000809336029093370282E40E94B63C88232D
:1037500051F00E94DC3C6093300270933102809300
:1037600032029093330286E40E94B63C882369F0CB
:103770000E94DC3C60932C0270932D0280932E02F9
:1037800090932F0281E08093850C0E9479982B0101
:103790003C010091801210E0F801EE0FFF1FE85786
:1037A000F34F60817181072E000C880B990B0E94EA
:1037B00088BE000F111F000F111FF801E756FD4EC4
:1037C00011E020813181428153810E9410C418167A
:1037D0000CF010E0109355051092190788248A9474
:1037E000982C5401B0E02B2EB5E03B2E18EEC12EE4
:1037F00013E0D12EE12CF12C8091190781110C944A
:103800008A2DBFEF8B169B06AB06BB0611F40C94FA
:10381000A32DB7FE02C00C948A2D0E9479986819D6
:1038200079096031774210F40C94A32D0C948A2D01
:103830008EED94E00E947D9C83E50E94B63C882337
:1038400061F00E94DC3C0E9429C370938105609363
:10385000800581E0809301020FC082E50E94B63CA2
:10386000882351F00E94DC3C0E9429C3709381059B
:1038700060938005109201020E9479984B015C01CF
:10388000109219076091800570918105072E000C38
:10389000880B990B0E9488BE11E02091470C309153
:1038A000480C4091490C50914A0C0E9410C41816C3
:1038B0000CF010E0109355050BED14E097EDE92E98
:1038C00094E0F92E23EDC22E24E0D22E3AE0732E9E
:1038D000809155056091800570918105882309F4D8
:1038E00085C080911907811181C0072E000C880BBB
:1038F000990B0E9488BE2091470C3091480C409152
:10390000490C50914A0C0E9410C418160CF085C046
:103910000E947998DC01CB0188199909AA09BB0991
:10392000893E9340A105B10508F458C0E0916A0CA6
:1039300024E0E29FF0011124E756FD4E6081718181
:1039400082819381F8012491EBEDF4E0222349F088
:103950003091C00035FFFCCF2093C60031962491F2
:10396000F5CF42E00E948945F7018491E7EDF4E04C
:10397000882349F09091C00095FFFCCF8093C6004A
:1039800031968491F5CF60916A0C70E080E090E010
:103990000E947745F6018491E3EDF4E0882349F035
:1039A0009091C00095FFFCCF8093C6003196849122
:1039B000F5CF6091470C7091480C8091490C909123
:1039C0004A0C41E00E9489458091C00085FFFCCFF0
:1039D0007092C6000E9479984B015C010E94737D31
:1039E00080E00E9407A10E949D9C72CF072E000CD0
:1039F000880B990B0E9488BE2091470C3091480C8F
:103A00004091490C50914A0C0E9482BE87FF05C02C
:103A100080910102882309F47BCF86EC94E00E9418
:103A20007D9C0E9479986093650C7093660C8093DE
:103A3000670C9093680C0C94532D83E50E94B63C60
:103A4000882319F10E94DC3C20E030E0A9010E94AB
:103A500082BE87FD0FC00E94DC3C20E030E04FE7D3
:103A600053E40E9410C4181644F00E94DC3C0E94EB
:103A700029C305C060E070E002C06FEF70E0709392
:103A8000870C6093860C0C94532D8FEF90E09093ED
:103A9000870C8093860C0C94532D0E94026A0E941E
:103AA000D780129A0E94E5801092870C1092860CA3
:103AB00068EE73E080E090E00E944198109200026E
:103AC00086EB94E00E947D9C0E949D9C0C94532D5B
:103AD00081E08093DF120C94532D83E50E94B63C65
:103AE0008823A1F00E94DC3C20E030E04AE754E467
:103AF0000E94B8BA0E942EC360936502709366025A
:103B000080936702909368020C94532D88E50E947D
:103B1000B63C81110C94C72E89E50E94B63C8111F8
:103B20000C94C72E8AE50E94B63C81110C94C72ED6
:103B300085E40E94B63C81110C94C72E0E94D78068
:103B4000129A0E94E5800C94532D83E50E94B63CA6
:103B5000882311F40C94532D0E94DC3C20E030E0CB
:103B60004AE754E40E94B8BA0E942EC360937412CC
:103B70007093751280937612909377120C94532D54
:103B8000B3E03B126CC00E94DC3C2B013C0120E006
:103B900030E040EA51E40E9482BE87FF41C0A301A9
:103BA0009201F80160817181828193810E94C1C27A
:103BB0006B017C019B01AC0160912A0C70912B0C74
:103BC00080912C0C90912D0C0E94B8BA60932A0C15
:103BD00070932B0C80932C0C90932D0CA7019601C5
:103BE000D5016D917D918D919C910E94B8BAF5019E
:103BF0006083718382839383ABADBCAD6D917D9106
:103C00008D919C910E9486BEA70196010E94B8BA30
:103C10000E942EC3EBADFCAD6083718382839383DE
:103C2000D8014D925D926D927C92139733940C5F04
:103C30001F4FF4E0AF0EB11C2BAD3CAD2C5F3F4FDE
:103C40003CAF2BAF34E0331611F40C94532DD40158
:103C50008D914D010E94B63C882341F391CF0E9483
:103C6000DC3CF8016083718382839383DFCFE0EED5
:103C7000F3E08491882311F40C94532D9091C000AB
:103C800095FFFCCF8093C6003196F3CF00912405B9
:103C9000109125050B5F1F4F6AE270E0C8010E947A
:103CA000E5C5009711F0DC011C92C8010E94909CB0
:103CB0000C94532DEDEDF3E08491882341F0909125
:103CC000C00095FFFCCF8093C6003196F5CF609180
:103CD000400970914109809142099091430942E065
:103CE0000E948945E9EDF3E08491882341F09091A9
:103CF000C00095FFFCCF8093C6003196F5CF609150
:103D0000440970914509809146099091470942E024
:103D10000E948945E5EDF3E08491882341F090917C
:103D2000C00095FFFCCF8093C6003196F5CF60911F
:103D300048097091490980914A0990914B0942E0E4
:103D40000E948945E1EDF3E08491882341F0909150
:103D5000C00095FFFCCF8093C6003196F5CF6091EF
:103D60004C0970914D0980914E0990914F0942E0A4
:103D70000E948945E6ECF3E08491882341F090911C
:103D8000C00095FFFCCF8093C6003196F5CF2FB7CA
:103D9000F8946091300970913109809132099091C5
:103DA00033092FBF0E9488BE209174093091750994
:103DB00040917609509177090E94C1C242E00E9469
:103DC0008945E2ECF3E08491882341F09091C000B2
:103DD00095FFFCCF8093C6003196F5CF2FB7F894AE
:103DE00060913409709135098091360990913709B5
:103DF0002FBF0E9488BE20917809309179094091A7
:103E00007A0950917B090E94C1C242E00E94894513
:103E1000EEEBF3E08491882341F09091C00095FF90
:103E2000FCCF8093C6003196F5CF2FB7F894609100
:103E300038097091390980913A0990913B092FBF57
:103E40000E9488BE20917C0930917D0940917E09B5
:103E500050917F090E94C1C242E00E948945809131
:103E6000C00085FFFCCF8AE08093C6000C94532DE0
:103E7000109210020C94532D81E0809310020C9448
:103E8000532D9091C00095FFFCCF8093C600819187
:103E90008111F7CF8091C00085FFFCCF8AE080932D
:103EA000C600E6EBF3E08491882341F09091C000D6
:103EB00095FFFCCF8093C6003196F5CF659B03C07C
:103EC000E1EBF3E009C0E6EBF3E006C09091C0003F
:103ED00095FFFCCF8093C60081918111F7CF80912F
:103EE000C00085FFFCCF8AE08093C600EEEAF3E0D5
:103EF0008491882341F09091C00095FFFCCF80937E
:103F0000C6003196F5CF649B03C0E1EBF3E009C036
:103F1000E6EBF3E006C09091C00095FFFCCF8093E4
:103F2000C60081918111F7CF8091C00085FFFCCF41
:103F30008AE08093C600E6EAF3E08491882341F0AA
:103F40009091C00095FFFCCF8093C6003196F5CFCD
:103F50008091030181FF03C0E1EBF3E009C0E6EBD0
:103F6000F3E006C09091C00095FFFCCF8093C6009F
:103F700081918111F7CF8091C00085FFFCCF8AE04D
:103F80008093C600EEE9F3E08491882341F090919C
:103F9000C00095FFFCCF8093C6003196F5CF80918D
:103FA000030180FF03C0E1EBF3E009C0E6EBF3E0BF
:103FB00006C09091C00095FFFCCF8093C600819110
:103FC0008111F7CF8091C00085FFFCCF8AE08093FC
:103FD000C600E6E9F3E08491882341F09091C000A7
:103FE00095FFFCCF8093C6003196F5CF4B9B03C065
:103FF000E1EBF3E009C0E6EBF3E006C09091C0000E
:1040000095FFFCCF8093C60081918111F7CF8091FD
:10401000C00085FFFCCF8AE08093C600EEE8F3E0A5
:104020008491882341F09091C00095FFFCCF80934C
:10403000C6003196F5CF4A9B03C0E1EBF3E009C01F
:10404000E6EBF3E006C09091C00095FFFCCF8093B3
:10405000C60081918111F7CF8091C00085FFFCCF10
:104060008AE08093C6000C94532D80916A0C809353
:10407000801284E50E94B63C882319F10E94DC3C42
:104080000E942EC3609380126623D9F0E3E7FCE020
:104090008491882341F09091C00095FFFCCF8093DC
:1040A000C6003196F5CFEBEDF3E08191882311F452
:1040B0000C94532D9091C00095FFFCCF8093C600C7
:1040C000F4CF84E40E94B63C882311F40C94532D61
:1040D0000E94DC3C20E030E0A9010E9482BE8111F8
:1040E00003C010923D0C32C00091801210E00E947B
:1040F000DC3C000F111F000F111FF801E15EFD4FA6
:104100006083718382839383C0901F02D0902002CA
:10411000E0902102F090220220E030E0A901C701E6
:10412000B6010E9482BE811106C0C12CD12CA0EE26
:10413000EA2EAFE3FA2EC0921F02D0922002E09244
:104140002102F092220281E080933D0C0E94A19D09
:104150000C94532DE1EAEE2EE2E1FE2E0DEA13E07F
:10416000F4E0DF2ED00EF80181918F010E94B63C61
:10417000882351F00E94DC3C0E942EC3D7016D932E
:104180007D938D939C931397B4E0EB0EF11CD012AA
:10419000EACF0E942B7D0C94532D69EBE62E62E151
:1041A000F62E0DEA13E074E0D72ED00EF8018191BF
:1041B0008F010E94B63C882341F00E94DC3CD7016D
:1041C0006D937D938D939C931397B4E0EB0EF11C4C
:1041D000D012ECCF0C94532D83E50E94B63C88237B
:1041E00051F00E94DC3C6093C9127093CA12809314
:1041F000CB129093CC1284E50E94B63C882311F434
:104200000C94532D0E94DC3C60939D1270939E127F
:1042100080939F129093A0120C94532D83E50E94DB
:10422000B63C882351F00E94DC3C6093B512709339
:10423000B6128093B7129093B81284E50E94B63CF0
:10424000882351F00E94DC3C6093B1127093B2124B
:104250008093B3129093B41282E40E94B63C8823F8
:1042600061F00E94DC3C0E942EC36093360C709378
:10427000370C8093380C9093390C88E50E94B63C3B
:10428000882351F00E94DC3C6093320C7093330C15
:104290008093340C9093350C8AE50E94B63C8823B9
:1042A00051F00E94DC3C60932E0C70932F0C809395
:1042B000300C9093310C85E40E94B63C882311F4B5
:1042C0000C94532D0E94DC3C60932A0C70932B0CB1
:1042D00080932C0C90932D0C0C94532D46E2E42EDD
:1042E00045E0F42E0DEA13E053E0D52ED00EF80190
:1042F00081918F010E94B63C882341F00E94DC3CF2
:10430000D7016D937D938D939C931397B4E0EB0E3F
:10431000F11CD012ECCF0C94532D83E50E94B63CD7
:10432000882311F40C94532D0E94DC3C0E9429C375
:1043300070931602609315020C94532D83E50E942E
:10434000B63C882311F40C94532D0E94DC3C0E944F
:1043500029C36B017C0184E50E94B63C882391F05F
:104360008DED90E00E94F99F81110C94532DE09106
:104370008012F0E0EE0FFF1FEF5EFD4FD182C08292
:104380000C94532DD0921402C09213020C94532D0E
:1043900080E50E94B63C882311F40C94532D0E94B2
:1043A000DC3C0E9429C3D62EE62EF72E83E50E9420
:1043B000B63C882331F00E94DC3C0E9429C38B016B
:1043C00002C00FEF1FEFC8010196039710F00C9485
:1043D000532DE9E7F2E0819191918E159F0511F43B
:1043E0000C94532D22E0E13BF207A9F7F7FE02C03F
:1043F0000C94532D0E94D780FD2C60E08D2D0E94DF
:104400003D970F3F3FEF130731F00130110571F475
:1044100001E010E00DC08D2D0E946F3131E020E0F1
:10442000892B09F030E0032F122F02C000E010E0CA
:104430008F2D0E946F318017910711F40C94532D2A
:104440000E94737D80E00E9407A10E949D9CF0CF96
:1044500083E50E94B63C882331F00E94DC3C0E9438
:1044600029C36B0103C02EE6C22ED12C80E50E9429
:10447000B63C882329F00E94DC3C0E9429C302C07C
:1044800068EE73E04B01770FAA08BB081C141D04EB
:104490000CF089C280910302853221F08F3F09F030
:1044A00079C204C0EAEBF6E01491E7C085E280939C
:1044B0000302EAEBF6E014911F3F09F46BC21230DD
:1044C00009F472C04CF5112309F451C0113009F000
:1044D000D4C0109280001092810080918100886089
:1044E0008093810080918100816080938100EDE064
:1044F000F6E0E491F0E0EE0FFF1FEC54FA4F8591E7
:10450000949190933D0580933C05E3E5F6E0E491BA
:10451000E0933B0511E0B3C0143009F48BC00CF4F8
:1045200066C0153009F0A9C0109220011092210137
:104530008091210188608093210180912101816017
:1045400080932101EDE0F6E0E491F0E0EE0FFF1F33
:10455000EC54FA4F859194919093340580933305F0
:10456000E3E5F6E0E491E093320515E088C014BC81
:1045700015BC84B5826084BD85B5816085BDEDE0E4
:10458000F6E0E491F0E0EE0FFF1FEC54FA4F859156
:1045900094919093400580933F05E3E5F6E0E49124
:1045A000E0933E0510E06BC01092B0001092B10095
:1045B0008091B00082608093B0008091B1008160F2
:1045C0008093B100EDE0F6E0E491F0E0EE0FFF1F24
:1045D000EC54FA4F8591949190935D0580935C051E
:1045E000E3E5F6E0E491E0935E0512E048C0109246
:1045F00090001092910080919100886080939100CA
:1046000080919100816080939100EDE0F6E0E4916B
:10461000F0E0EE0FFF1FEC54FA4F859194919093C8
:104620003A0580933905E3E5F6E0E491E093380537
:1046300013E025C01092A0001092A1008091A1006B
:1046400088608093A1008091A10081608093A10087
:10465000EDE0F6E0E491F0E0EE0FFF1FEC54FA4FCE
:10466000859194919093370580933605E3E5F6E0C4
:10467000E491E093350514E002C017FD8BC161E0C1
:1046800085E20E943D970D2C000CEE08FF08812F5B
:104690008D7F09F0AEC060E072E18AE790E0A7018B
:1046A00096010E947BC529013A01BA01A901415036
:1046B0005109610971094F3F51056105710509F003
:1046C0000CF448C060E472E48FE090E0A70196012A
:1046D0000E947BC5BA01A9014150510961097109C4
:1046E0001230F1F44F3F51056105710509F014F4E2
:1046F0000C94253160E970ED83E090E0A70196010C
:104700000E947BC5BA01A901415051096109710993
:104710004F3F51056105710509F0BCF583E062C0AA
:104720004F3F510561057105B9F0B4F068E478EECA
:1047300081E090E0A70196010E947BC5BA01A90122
:104740004150510961097109112311F40C9403318D
:104750000C94FA3081E001C082E0111143C010C016
:10476000D301C2012AE0B595A795979587952A951B
:10477000D1F7AC01BD01415051096109710985E0D2
:1047800095B5987F892B85BD8DC068E478EE81E072
:1047900090E0A70196010E947BC5BA01A901415092
:1047A0005109610971094F3F51056105710509F012
:1047B00014F40C94CA3064E274EF80E090E0A70136
:1047C00096010E947BC5BA01A901415051096109B6
:1047D00071094F3F51056105710519F014F00C94F2
:1047E000CD3085E09091B100987F892B8093B10006
:1047F00049C060E072E18AE790E0A70196010E945B
:104800007BC5BA01A90141505109610971094115DE
:10481000510581E06807710584F068E478EE81E075
:1048200090E0A70196010E947BC5BA01A901415001
:1048300051096109710983E001C081E0113039F447
:1048400090918100987F892B809381003DC0133027
:1048500039F490919100987F892B809391005CC0EE
:10486000143039F49091A100987F892B8093A10096
:1048700068C0153039F490912101987F892B80937D
:10488000210174C01230A9F12CF4112359F0113018
:10489000D9F080C0143009F454C0F4F1153009F493
:1048A00065C078C047BD8FEF9FEFDC018093510555
:1048B00090935205A0935305B093540580916E00D8
:1048C000826080936E0066C0509389004093880098
:1048D0008FEF9FEFDC0180934D0590934E05A093E1
:1048E0004F05B093500580916F00826080936F00F8
:1048F00051C04093B3008FEF9FEFDC0180935F05C1
:1049000090936005A0936105B0936205809170005B
:104910008260809370003EC050939900409398004D
:104920008FEF9FEFDC018093490590934A05A09398
:104930004B05B0934C0580917100826080937100AB
:1049400029C05093A9004093A8008FEF9FEFDC018E
:104950008093450590934605A0934705B09348057D
:104960008091720082608093720014C0509329017C
:10497000409328018FEF9FEFDC01809341059093D6
:104980004205A0934305B093440580917300826073
:1049900080937300C501B4010E94419885E20E9492
:1049A000C8310C94532DC501B4010E9441980C9458
:1049B000532D80E50E94B63C882351F00E94DC3CD8
:1049C000609348027093490280934A0290934B028D
:1049D00089E40E94B63C882381F00E94DC3C2CEAEA
:1049E00035EC47E25EE30E94B8BA60930A02709326
:1049F0000B0280930C0290930D0284E40E94B63C5B
:104A0000882381F00E94DC3C2CEA35EC47E25EE32F
:104A10000E94C1C2609338027093390280933A02B7
:104A200090933B0283E40E94B63C882351F00E949D
:104A3000DC3C609328027093290280932A029093B1
:104A40002B020E948280E2EFF3E08191882339F00B
:104A50009091C00095FFFCCF8093C600F6CFE5EFA4
:104A6000F3E08191882339F09091C00095FFFCCF4D
:104A70008093C600F6CF6091480270914902809100
:104A80004A0290914B0242E00E948945E9EFF3E02F
:104A90008191882339F09091C00095FFFCCF8093DD
:104AA000C600F6CF2CEA35EC47E25EE360910A02DD
:104AB00070910B0280910C0290910D020E94C1C274
:104AC00042E00E948945EDEFF3E08191882339F0BF
:104AD0009091C00095FFFCCF8093C600F6CF2CEAE2
:104AE00035EC47E25EE360913802709139028091C3
:104AF0003A0290913B020E94B8BA42E00E94894576
:104B0000E1E0F4E08191882339F09091C00095FFB5
:104B1000FCCF8093C600F6CF6091280270912902E5
:104B200080912A0290912B0242E00E948945809157
:104B3000C00085FFFCCF8AE08093C600B4C780E543
:104B40000E94B63C882351F00E94DC3C60934402F2
:104B500070934502809346029093470289E40E9435
:104B6000B63C882381F00E94DC3C2CEA35EC47E21D
:104B70005EE30E94B8BA60930602709307028093C6
:104B800008029093090284E40E94B63C882381F0D5
:104B90000E94DC3C2CEA35EC47E25EE30E94C1C295
:104BA00060934002709341028093420290934302CB
:104BB0000E948280E2EFF3E08191882339F09091A6
:104BC000C00095FFFCCF8093C600F6CFE5EFF3E081
:104BD0008191882339F09091C00095FFFCCF80939C
:104BE000C600F6CF60914402709145028091460262
:104BF0009091470242E00E948945E9EFF3E08191FC
:104C0000882339F09091C00095FFFCCF8093C600B7
:104C1000F6CF2CEA35EC47E25EE360910602709134
:104C2000070280910802909109020E94C1C242E0ED
:104C30000E948945EDEFF3E08191882339F090914E
:104C4000C00095FFFCCF8093C600F6CF2CEA35EC70
:104C500047E25EE36091400270914102809142021E
:104C6000909143020E94B8BA42E00E948945809127
:104C7000C00085FFFCCF8AE08093C60014C783E59F
:104C80000E94B63C882319F00E94DC3C03C060E01F
:104C900070E0CB0160931B0270931C0280931D0295
:104CA00090931E0200C785E40E94B63C882341F021
:104CB0000E94DC3C0E9429C38B0177FD12C002C018
:104CC00000E010E027961FAE279728961FAE289782
:104CD00096E129969FAF2997A3E42A96AFAF2A972A
:104CE0000EC027961FAE279728961FAE2897BCE8C0
:104CF0002996BFAF2997E2E42A96EFAF2A9783E57A
:104D00000E94B63C882371F00E94DC3C27966FAF6E
:104D1000279728967FAF289729968FAF29972A96AD
:104D20009FAF2A9783E40E94B63C882349F00E94F3
:104D3000DC3C0E9429C3A2967FAF6EAFA29706C04B
:104D400025E030E0A2963FAF2EAFA2970E9479985F
:104D500026966CAF7DAF8EAF9FAF269710161106CB
:104D60001CF0E5E0F4E01AC0E8E1F4E0819188236A
:104D700039F09091C00095FFFCCF8093C600F6CF2C
:104D80008091C00085FFFCCF8AE08093C6008BC66F
:104D90009091C00095FFFCCF8093C6008191811156
:104DA000F7CF8091C00085FFFCCF8AE08093C600DA
:104DB0000E94026A8FE70115110509F44DC0809326
:104DC000410C26964CAC5DAC6EAC7FAC26976296DF
:104DD0004CAE5DAE6EAE7FAE6297A6964CAE5DAE4B
:104DE0006EAE7FAEA6972B961FAE2B9720E46996EA
:104DF0002FAF69973CE16A963FAF6A9746E46B969E
:104E00004FAF6B9765961FAE659766961FAE669718
:104E100067961FAE679768961FAE68976FE7462E36
:104E2000512C612C712C22964CAE5DAE6EAE7FAED5
:104E30002297A0961CAE1DAE1EAE1FAEA09721E01D
:104E40006C962FAF6C9764961FAE1EAE64971BAE28
:104E5000212C312C1DAE05C08093420CB2CF0E9494
:104E60009D9C8091400C882309F459C10E948C6D4F
:104E70000115110559F03091470C3BAF2090480CBB
:104E80003090490C40914A0C4DAF0AC05091991294
:104E90005BAF20909A1230909B1280919C128DAF44
:104EA0002BAD322D432D5DAD65966FAD6597669642
:104EB0007FAD669767968FAD679768969FAD689749
:104EC0000E9410C4181674F09BAD65969FAF65974D
:104ED00066962FAE669767963FAE6797ADAD6896BC
:104EE000AFAF68972BAD322D432D5DAD2B966FADD7
:104EF0002B9769967FAD69976A968FAD6A976B9687
:104F00009FAD6B970E9482BE87FD0EC0BBAD2B96F6
:104F1000BFAF2B9769962FAE69976A963FAE6A9797
:104F2000EDAD6B96EFAF6B976C96FFAD6C97FF2373
:104F300009F473C027962FAD279728963FAD289781
:104F400029964FAD29972A965FAD2A976BAD722DA2
:104F5000832D9DAD0E9410C418160CF0E0C00E9475
:104F60007998DC01CB0126962CAD3DAD4EAD5FAD01
:104F70002697821B930BA40BB50B89389341A1058F
:104F8000B10508F4CCC0D301C20122962CAD3DADD1
:104F90004EAD5FAD2297821B930BA40BB50BB5955D
:104FA000A795979587950115110519F08093410CE8
:104FB00002C08093420C0E94799862966CAF7DAFDC
:104FC0008EAF9FAF6297DC01CB0126962CAD3DAD35
:104FD0004EAD5FAD2697821B930BA40BB50BA0962D
:104FE0008CAF9DAFAEAFBFAFA09727963FAD2797D1
:104FF00065963FAF659728964FAD289766964FAF59
:10500000669729965FAD299767965FAF67972A964F
:105010008FAD2A9768968FAF689727962FAD279701
:1050200028963FAD289729964FAD29972A965FADD0
:105030002A976BAD722D832D9DAD0E9482BE87FD98
:1050400002C00C94C5300E947998DC01CB016296B5
:105050002CAD3DAD4EAD5FAD6297821B930BA40BA3
:10506000B50B89389341A105B10510F40C94C530F6
:105070000E94799826966CAF7DAF8EAF9FAF269732
:10508000DC01CB0162962CAD3DAD4EAD5FAD6297BC
:10509000821B930BA40BB50B64964EAD5FAD64976A
:1050A000141615060CF49CC622968CAD9DADAEADC3
:1050B000BFAD2297840D951DA61DB71DB595A7956B
:1050C000979587950115110511F40C94C1308093C3
:1050D000410C64962EAD3FAD64972F5F3F4F6496B1
:1050E0003FAF2EAF649727963FAD27972B963FAFE4
:1050F0002B9728964FAD289769964FAF69972996B9
:105100005FAD29976A965FAF6A972A968FAD2A9707
:105110006B968FAF6B9791E06C969FAF6C9720E08A
:1051200030E040EA51E427966FAD279728967FAD8F
:10513000289729968FAD29972A969FAD2A970E9486
:10514000E5C19B01AC016BAD722D832D9DAD0E941D
:1051500010C41816ACF4E4EBF2E08491882341F01B
:105160009091C00095FFFCCF8093C6003196F5CF9B
:105170008091C00085FFFCCF8AE08093C60093C475
:105180000E947998DC01CB01A6962CAD3DAD4EADC9
:105190005FADA697821B930BA40BB50B813D974087
:1051A000A105B10508F44CC00115110581F0E0908E
:1051B000410CF12CEEEAF2E084918823C1F0909149
:1051C000C00095FFFCCF8093C6003196F5CFE090EC
:1051D000420CF12CE8EAF2E08491882341F09091AE
:1051E000C00095FFFCCF8093C6003196F5CF42E01A
:1051F0006BAD722D832D9DAD0E948945E4EAF2E0EE
:105200008491882341F09091C00095FFFCCF80935A
:10521000C6003196F5CFB701FF0C880B990B0E94A1
:1052200077458091C00085FFFCCF8AE08093C6005F
:105230000E947998A6966CAF7DAF8EAF9FAFA69770
:105240000E9479986B017C010E94799862968CACDF
:105250009DACAEACBFAC629726962CAD3DAD4EADCD
:105260005FAD2697820E931EA41EB51EC818D908DE
:10527000EA08FB08DC01CB018C0D9D1DAE1DBF1D96
:1052800081389F44A241B105A8F0E7E8F2E084919B
:10529000882341F09091C00095FFFCCF8093C60019
:1052A0003196F5CF8091C00085FFFCCF8AE08093D6
:1052B000C600F9C364964EAD5FAD6497A2968EADFD
:1052C0009FADA297841795070CF0C9CDEBE2F2E0F1
:1052D0008491882341F09091C00095FFFCCF80938A
:1052E000C6003196F5CF8091C00085FFFCCF8AE0E3
:1052F0008093C600D8C30E94B095D5C30E94BD94C8
:10530000D2C30E947D90CFC38AE50E94B63C882319
:1053100009F493C00E94DC3C6B017C0120E030E08A
:1053200040E751EC0E9410C487FD3FC020E030E010
:1053300040EA50ECC701B6010E9482BE1816ACF1DB
:10534000F7FAF094F7F8F094C0921C05D0921D057E
:10535000E0921E05F0921F05E3E7FCE084918823AC
:1053600041F09091C00095FFFCCF8093C60031962C
:10537000F5CFECE7F3E08491882341F09091C000F1
:1053800095FFFCCF8093C6003196F5CF8091C00089
:1053900085FFFCCF8AE08093C6008091C00085FF26
:1053A000FCCF8AE08093C6007EC3E3E7FCE08491F3
:1053B000882341F09091C00095FFFCCF8093C600F8
:1053C0003196F5CFEDE6F3E08491882341F090919A
:1053D000C00095FFFCCF8093C6003196F5CFE5E67F
:1053E000F3E08491882341F09091C00095FFFCCFB9
:1053F0008093C6003196F5CF61EF7FEF8FEF9FEF7F
:105400000E947745EDE5F3E08491882341F0909187
:10541000C00095FFFCCF8093C6003196F5CF6BEFAF
:105420007FEF8FEF9FEF0E9477458091C00085FF4F
:10543000FCCF8AE08093C60036C3E3E7FCE08491AA
:10544000882341F09091C00095FFFCCF8093C60067
:105450003196F5CFEBE4F3E08491882341F090910D
:10546000C00095FFFCCF8093C6003196F5CF8091A8
:10547000C00085FFFCCF8AE08093C60080911C05A8
:1054800090911D05A0911E05B0911F05BC01CD0195
:10549000905842E00E9489458091C00085FFFCCF72
:1054A0008AE08093C600FFC2C0904009D0904109B5
:1054B000E0904209F0904309C8A2D9A2EAA2FBA257
:1054C00000914409109145092091460930914709FE
:1054D0000CA31DA32EA33FA3409148095091490955
:1054E00060914A0970914B0948A759A76AA77BA701
:1054F00080914C0990914D09A0914E09B0914F09AE
:105500008CA79DA7AEA7BFA7C982DA82EB82FC82D7
:105510000D831E832F83388749875A876B877C8743
:105520008D879E87AF87B88B85E40E94B63C882321
:1055300059F00E94DC3C9B01AC016CA57DA58EA5B9
:105540009FA50E94E5C10AC020E030E040EA50E497
:105550006CA57DA58EA59FA50E94E4C16CA77DA723
:105560008EA79FA720E030E040E752E460916902F7
:1055700070916A0280916B0290916C020E94C1C28C
:10558000FAE6CF2EFCE0DF2E7B018C019E01245D2C
:105590003F4FAE01485D5F4FBE016C5D7F4FCE0156
:1055A00080960E947E4B8AE50E94B63C882329F0B3
:1055B0000E94DC3C9B01AC0104C020E030E040E2F2
:1055C00051E468A579A58AA59BA50E94E5C168A7B5
:1055D00079A78AA79BA720E030E040E752E46091DA
:1055E000690270916A0280916B0290916C020E9434
:1055F000C1C2EAE6CE2EECE0DE2E7B018C019E01DC
:10560000245D3F4FAE01485D5F4FBE016C5D7F4F33
:10561000CE0180960E947E4B88E50E94B63C88238E
:1056200079F00E94DC3C9B01AC0168A179A18AA1C0
:105630009BA10E94E5C168A379A38AA39BA308C08C
:1056400080E090E0A0E4B0E488A399A3AAA3BBA360
:1056500089E50E94B63C882339F00E94DC3C6CA3AB
:105660007DA38EA39FA308C080E090E0A0E4B0E4F7
:105670008CA39DA3AEA3BFA320E030E040E752E49B
:105680006091690270916A0280916B0290916C0244
:105690000E94C1C25AE6C52E5CE0D52E7B018C016A
:1056A0009E01245D3F4FAE01485D5F4FBE016C5DC2
:1056B0007F4FCE0180960E947E4B8CE40E94B63CC8
:1056C000882359F00E94DC3C9B01AC016CA57DA5B0
:1056D0008EA59FA50E94E5C10AC020E030E040E70A
:1056E00052E46CA57DA58EA59FA50E94E4C16CA780
:1056F0007DA78EA79FA720E030E040E752E46091AD
:10570000690270916A0280916B0290916C020E9412
:10571000C1C24AE6C42E4CE0D42E7B018C019E010E
:10572000245D3F4FAE01485D5F4FBE016C5D7F4F12
:10573000CE0180960E947E4B0E94D780129A64E62A
:1057400070E080E090E00E9441988AE393E00E943C
:105750008A9C10E08091690C82FD1AC01F5F0E9434
:10576000737D81E00E9407A10E949D9C1111F2CFE0
:10577000389A409A63E070E080E090E00E9441989F
:10578000409863E070E080E090E00E944198E2CFB2
:105790008CE40E94B63C882359F00E94DC3C9B01BB
:1057A000AC016CA57DA58EA59FA50E94E4C10AC091
:1057B00020E030E040E752E46CA57DA58EA59FA5D2
:1057C0000E94E5C16CA77DA78EA79FA78CA59DA56C
:1057D000AEA5BFA580934C0990934D09A0934E09A7
:1057E000B0934F090E944D7320E030E040E752E44F
:1057F0006091690270916A0280916B0290916C02D3
:105800000E94C1C23AE6C32E3CE0D32E7B018C013C
:105810009E01245D3F4FAE01485D5F4FBE016C5D50
:105820007F4FCE0180960E947E4B20E030E040E723
:1058300052E46091690270916A0280916B029091CA
:105840006C020E94C1C27B018C019E01245D3F4F0E
:10585000AE01485D5F4FBE016B5F7F4FCE01019689
:105860000E947E4B20E030E040E752E46091690204
:1058700070916A0280916B0290916C020E94C1C289
:105880007B018C019E01245D3F4FAE01475F5F4F5E
:10589000BE016B5F7F4FCE0101960E947E4B20E0E0
:1058A00030E040E752E46091690270916A028091B1
:1058B0006B0290916C020E94C1C27B018C019E011F
:1058C000235F3F4FAE01475F5F4FBE016B5F7F4F6E
:1058D000CE0101960E947E4BE6C010923F0C1092C2
:1058E00055128091781290917912A0917A12B0910C
:1058F0007B1280937C1290937D12A0937E12B093C2
:105900007F120E943CB4CFC084E50E94B63C88233D
:1059100009F485C00E94DC3C0E942EC36093801273
:105920006623A9F1E3E7FCE08491882341F090919C
:10593000C00095FFFCCF8093C6003196F5CFE2E41E
:10594000F4E08191882339F09091C00095FFFCCF5D
:105950008093C600F6CF809180129091C00095FF91
:10596000FCCF8093C600E4E4F4E08191882339F011
:105970009091C00095FFFCCF8093C600F6CF809138
:10598000C00085FFFCCF8AE08093C6008CC086E40F
:105990000E94B63C8823D9F00E94DC3C6B017C015C
:1059A0006093D7127093D8128093D9129093DA1221
:1059B00020E030E0A9010E9410C4181644F4C092FF
:1059C0006902D0926A02E0926B02F0926C02E3E705
:1059D000FCE08491882341F09091C00095FFFCCFBA
:1059E0008093C6003196F5CFE5E5F4E081918823F8
:1059F00039F09091C00095FFFCCF8093C600F6CFA0
:105A000060916A0C70E080E090E00E9477458091A0
:105A1000C00085FFFCCF8AE08093C60044C0E3E766
:105A2000FCE08491882341F09091C00095FFFCCF69
:105A30008093C6003196F5CFE7E2F3E084918823A6
:105A400041F09091C00095FFFCCF8093C600319645
:105A5000F5CF809117079091180720E6289FF00155
:105A6000299FF00D1124E956FA4F8191882339F0CE
:105A70009091C00095FFFCCF8093C600F6CFE5E281
:105A8000F3E08491882341F09091C00095FFFCCF12
:105A90008093C6003196F5CF8091C00085FFFCCF82
:105AA0008AE08093C6000E9414B4D2C380EC9CE1CB
:105AB0000E94623C6B017C0184EC9CE10C945512C9
:105AC00080E090E00E94CD9E0C942C1381E090E049
:105AD0000E94CD9E0C94371382E090E00E94CD9EF0
